{
  "contractName": "PropertyTransfer",
  "abi": [
    {
      "inputs": [],
      "stateMutability": "nonpayable",
      "type": "constructor"
    },
    {
      "inputs": [
        {
          "internalType": "uint256",
          "name": "",
          "type": "uint256"
        }
      ],
      "name": "details",
      "outputs": [
        {
          "internalType": "uint256",
          "name": "propertyId",
          "type": "uint256"
        },
        {
          "internalType": "address",
          "name": "CurrentOwner_account",
          "type": "address"
        },
        {
          "internalType": "string",
          "name": "PropertyAddress",
          "type": "string"
        }
      ],
      "stateMutability": "view",
      "type": "function",
      "constant": true
    },
    {
      "inputs": [
        {
          "internalType": "uint256",
          "name": "id",
          "type": "uint256"
        },
        {
          "internalType": "address",
          "name": "new_Ower_Address",
          "type": "address"
        },
        {
          "internalType": "string",
          "name": "propAddress",
          "type": "string"
        }
      ],
      "name": "uploadProperty",
      "outputs": [
        {
          "internalType": "bool",
          "name": "",
          "type": "bool"
        }
      ],
      "stateMutability": "nonpayable",
      "type": "function"
    },
    {
      "inputs": [
        {
          "internalType": "uint256",
          "name": "propId",
          "type": "uint256"
        },
        {
          "internalType": "address",
          "name": "newOwner",
          "type": "address"
        }
      ],
      "name": "transfer",
      "outputs": [
        {
          "internalType": "bool",
          "name": "",
          "type": "bool"
        }
      ],
      "stateMutability": "nonpayable",
      "type": "function"
    },
    {
      "inputs": [
        {
          "internalType": "uint256",
          "name": "propId",
          "type": "uint256"
        }
      ],
      "name": "propertyDetail",
      "outputs": [
        {
          "internalType": "string",
          "name": "propAddress",
          "type": "string"
        },
        {
          "internalType": "address",
          "name": "currentAddress",
          "type": "address"
        },
        {
          "internalType": "address[]",
          "name": "Pre_owners",
          "type": "address[]"
        }
      ],
      "stateMutability": "view",
      "type": "function",
      "constant": true
    }
  ],
  "bytecode": "0x608060405234801561001057600080fd5b50336000806101000a81548173ffffffffffffffffffffffffffffffffffffffff021916908373ffffffffffffffffffffffffffffffffffffffff160217905550610d8f806100606000396000f3fe608060405234801561001057600080fd5b506004361061004c5760003560e01c80634bf9a02214610051578063a005ec7a14610083578063b7760c8f146100b5578063fd71325e146100e5575b600080fd5b61006b600480360381019061006691906107f0565b610115565b60405161007a939291906109b5565b60405180910390f35b61009d600480360381019061009891906107f0565b61029f565b6040516100ac93929190610a09565b60405180910390f35b6100cf60048036038101906100ca9190610a73565b610371565b6040516100dc9190610ace565b60405180910390f35b6100ff60048036038101906100fa9190610c1e565b610591565b60405161010c9190610ace565b60405180910390f35b606060006060600160008581526020019081526020016000206002016001600086815260200190815260200160002060010160009054906101000a900473ffffffffffffffffffffffffffffffffffffffff166001600087815260200190815260200160002060030182805461018a90610cbc565b80601f01602080910402602001604051908101604052809291908181526020018280546101b690610cbc565b80156102035780601f106101d857610100808354040283529160200191610203565b820191906000526020600020905b8154815290600101906020018083116101e657829003601f168201915b505050505092508080548060200260200160405190810160405280929190818152602001828054801561028b57602002820191906000526020600020905b8160009054906101000a900473ffffffffffffffffffffffffffffffffffffffff1673ffffffffffffffffffffffffffffffffffffffff1681526020019060010190808311610241575b505050505090509250925092509193909250565b60016020528060005260406000206000915090508060000154908060010160009054906101000a900473ffffffffffffffffffffffffffffffffffffffff16908060020180546102ee90610cbc565b80601f016020809104026020016040519081016040528092919081815260200182805461031a90610cbc565b80156103675780601f1061033c57610100808354040283529160200191610367565b820191906000526020600020905b81548152906001019060200180831161034a57829003601f168201915b5050505050905083565b60003373ffffffffffffffffffffffffffffffffffffffff166001600085815260200190815260200160002060010160009054906101000a900473ffffffffffffffffffffffffffffffffffffffff1673ffffffffffffffffffffffffffffffffffffffff1614610417576040517f08c379a000000000000000000000000000000000000000000000000000000000815260040161040e90610d39565b60405180910390fd5b8173ffffffffffffffffffffffffffffffffffffffff166001600085815260200190815260200160002060010160009054906101000a900473ffffffffffffffffffffffffffffffffffffffff1673ffffffffffffffffffffffffffffffffffffffff160361048557600080fd5b600160008481526020019081526020016000206003016001600085815260200190815260200160002060010160009054906101000a900473ffffffffffffffffffffffffffffffffffffffff169080600181540180825580915050600190039060005260206000200160009091909190916101000a81548173ffffffffffffffffffffffffffffffffffffffff021916908373ffffffffffffffffffffffffffffffffffffffff160217905550816001600085815260200190815260200160002060010160006101000a81548173ffffffffffffffffffffffffffffffffffffffff021916908373ffffffffffffffffffffffffffffffffffffffff1602179055506001905092915050565b6000606060405180608001604052808681526020018573ffffffffffffffffffffffffffffffffffffffff16815260200184815260200182815250600160008781526020019081526020016000206000820151816000015560208201518160010160006101000a81548173ffffffffffffffffffffffffffffffffffffffff021916908373ffffffffffffffffffffffffffffffffffffffff160217905550604082015181600201908051906020019061064c929190610679565b5060608201518160030190805190602001906106699291906106ff565b5090505060019150509392505050565b82805461068590610cbc565b90600052602060002090601f0160209004810192826106a757600085556106ee565b82601f106106c057805160ff19168380011785556106ee565b828001600101855582156106ee579182015b828111156106ed5782518255916020019190600101906106d2565b5b5090506106fb9190610789565b5090565b828054828255906000526020600020908101928215610778579160200282015b828111156107775782518260006101000a81548173ffffffffffffffffffffffffffffffffffffffff021916908373ffffffffffffffffffffffffffffffffffffffff1602179055509160200191906001019061071f565b5b5090506107859190610789565b5090565b5b808211156107a257600081600090555060010161078a565b5090565b6000604051905090565b600080fd5b600080fd5b6000819050919050565b6107cd816107ba565b81146107d857600080fd5b50565b6000813590506107ea816107c4565b92915050565b600060208284031215610806576108056107b0565b5b6000610814848285016107db565b91505092915050565b600081519050919050565b600082825260208201905092915050565b60005b8381101561085757808201518184015260208101905061083c565b83811115610866576000848401525b50505050565b6000601f19601f8301169050919050565b60006108888261081d565b6108928185610828565b93506108a2818560208601610839565b6108ab8161086c565b840191505092915050565b600073ffffffffffffffffffffffffffffffffffffffff82169050919050565b60006108e1826108b6565b9050919050565b6108f1816108d6565b82525050565b600081519050919050565b600082825260208201905092915050565b6000819050602082019050919050565b61092c816108d6565b82525050565b600061093e8383610923565b60208301905092915050565b6000602082019050919050565b6000610962826108f7565b61096c8185610902565b935061097783610913565b8060005b838110156109a857815161098f8882610932565b975061099a8361094a565b92505060018101905061097b565b5085935050505092915050565b600060608201905081810360008301526109cf818661087d565b90506109de60208301856108e8565b81810360408301526109f08184610957565b9050949350505050565b610a03816107ba565b82525050565b6000606082019050610a1e60008301866109fa565b610a2b60208301856108e8565b8181036040830152610a3d818461087d565b9050949350505050565b610a50816108d6565b8114610a5b57600080fd5b50565b600081359050610a6d81610a47565b92915050565b60008060408385031215610a8a57610a896107b0565b5b6000610a98858286016107db565b9250506020610aa985828601610a5e565b9150509250929050565b60008115159050919050565b610ac881610ab3565b82525050565b6000602082019050610ae36000830184610abf565b92915050565b600080fd5b600080fd5b7f4e487b7100000000000000000000000000000000000000000000000000000000600052604160045260246000fd5b610b2b8261086c565b810181811067ffffffffffffffff82111715610b4a57610b49610af3565b5b80604052505050565b6000610b5d6107a6565b9050610b698282610b22565b919050565b600067ffffffffffffffff821115610b8957610b88610af3565b5b610b928261086c565b9050602081019050919050565b82818337600083830152505050565b6000610bc1610bbc84610b6e565b610b53565b905082815260208101848484011115610bdd57610bdc610aee565b5b610be8848285610b9f565b509392505050565b600082601f830112610c0557610c04610ae9565b5b8135610c15848260208601610bae565b91505092915050565b600080600060608486031215610c3757610c366107b0565b5b6000610c45868287016107db565b9350506020610c5686828701610a5e565b925050604084013567ffffffffffffffff811115610c7757610c766107b5565b5b610c8386828701610bf0565b9150509250925092565b7f4e487b7100000000000000000000000000000000000000000000000000000000600052602260045260246000fd5b60006002820490506001821680610cd457607f821691505b602082108103610ce757610ce6610c8d565b5b50919050565b7f596f7520617265206e6f7420746865206f776e65720000000000000000000000600082015250565b6000610d23601583610828565b9150610d2e82610ced565b602082019050919050565b60006020820190508181036000830152610d5281610d16565b905091905056fea264697066735822122044c43631e1b28a3ef2e2cf773b7cfa22c61f2416532de7f9fd0bbc877453274664736f6c634300080d0033",
  "immutableReferences": {},
  "source": "pragma solidity >=0.4.22 <0.9.0;\n\ncontract PropertyTransfer {\n    address ContractOwner;\n\n    //getting current owner execution\n    constructor() public {\n        ContractOwner = msg.sender;\n    }\n\n    //setting structure\n    struct property_struc {\n        uint256 propertyId;\n        address CurrentOwner_account;\n        string PropertyAddress;\n        address[] Prev_Owner_accounts;\n    }\n\n    mapping(uint256 => property_struc) public details;\n\n    function uploadProperty(\n        uint256 id,\n        address new_Ower_Address,\n        string memory propAddress\n    ) public returns (bool) {\n        address[] memory array;\n        details[id] = property_struc(id, new_Ower_Address, propAddress, array);\n        return true;\n    }\n\n    function transfer(uint256 propId, address newOwner) public returns (bool) {\n        require(\n            details[propId].CurrentOwner_account == msg.sender,\n            \"You are not the owner\"\n        );\n        require(details[propId].CurrentOwner_account != newOwner);\n        details[propId].Prev_Owner_accounts.push(\n            details[propId].CurrentOwner_account\n        );\n        details[propId].CurrentOwner_account = newOwner;\n        return true;\n    }\n\n    function propertyDetail(uint256 propId)\n        public\n        view\n        returns (\n            string memory propAddress,\n            address currentAddress,\n            address[] memory Pre_owners\n        )\n    {\n        return (\n            details[propId].PropertyAddress,\n            details[propId].CurrentOwner_account,\n            details[propId].Prev_Owner_accounts\n        );\n    }\n}\n",
  "sourcePath": "/Users/qamarali/PropertyTranferProject/contracts/PropertyTranfer.sol",
  "compiler": {
    "name": "solc",
    "version": "0.8.13+commit.abaa5c0e.Emscripten.clang"
  },
  "schemaVersion": "3.4.7",
  "updatedAt": "2022-05-24T16:28:02.692Z",
  "networkType": "ethereum",
  "devdoc": {
    "kind": "dev",
    "methods": {},
    "version": 1
  },
  "userdoc": {
    "kind": "user",
    "methods": {},
    "version": 1
  }
}